{
  "contractName": "HelloWorld",
  "abi": [
    {
      "constant": false,
      "inputs": [],
      "name": "SayHello",
      "outputs": [
        {
          "name": "",
          "type": "string"
        }
      ],
      "payable": false,
      "stateMutability": "nonpayable",
      "type": "function",
      "signature": "0x3acb3150"
    }
  ],
  "bytecode": "0x608060405234801561001057600080fd5b5061013f806100206000396000f3fe608060405260043610610041576000357c0100000000000000000000000000000000000000000000000000000000900463ffffffff1680633acb315014610046575b600080fd5b34801561005257600080fd5b5061005b6100d6565b6040518080602001828103825283818151815260200191508051906020019080838360005b8381101561009b578082015181840152602081019050610080565b50505050905090810190601f1680156100c85780820380516001836020036101000a031916815260200191505b509250505060405180910390f35b60606040805190810160405280600a81526020017f48656c6c6f576f726c640000000000000000000000000000000000000000000081525090509056fea165627a7a723058202874237f428d55743fd4d0de5b9acbad20d643cfac49443841a2f0ae907dc0a20029",
  "source": "pragma solidity^0.5.0;\r\n\r\ncontract HelloWorld {\r\n    function SayHello() public returns(string memory) \r\n    {\r\n        return \"HelloWorld\";\r\n    }\r\n}",
  "sourcePath": "/mnt/f/MEGA-Arquivos/Blockchain/01-Blockchain-Fundamentos/Modulo10-BlockChainComAzure/HelloWorld/contracts/HelloWorld.sol",
  "compiler": {
    "name": "solc",
    "version": "0.5.0+commit.1d4f565a.Emscripten.clang"
  },
  "schemaVersion": "3.0.0",
  "updatedAt": "2019-07-04T23:03:44.357Z",
  "devdoc": {
    "methods": {}
  },
  "userdoc": {
    "methods": {}
  }
}